:100000000C945D000C9485000C9485000C94850084
:100010000C9485000C9485000C9485000C9485004C
:100020000C9485000C9485000C9485000C9485003C
:100030000C9485000C9485000C9485000C9485002C
:100040000C9444010C9485000C9450040C9482048C
:100050000C9485000C9485000C9485000C9485000C
:100060000C9485000C94850000000008000201003B
:100070000003040700000000000000000102040863
:100080001020408001020408102001020408102002
:10009000040404040404040402020202020203032E
:1000A0000303030300000000250028002B000000CC
:1000B0000000240027002A00B20411241FBECFEF45
:1000C000D8E0DEBFCDBF11E0A0E0B1E0ECEBFCE09A
:1000D00002C005900D92AC35B107D9F722E0ACE52E
:1000E000B1E001C01D92AB31B207E1F710E0CAEBFD
:1000F000D0E004C02297FE010E943206C83BD1071F
:10010000C9F70E94F6040C945C060C940000CF938F
:10011000DF93EC0160E070E086E00E94140268EC7E
:1001200070E080E090E00E94B101BE0185E00E9495
:10013000140260E071E08EE791E00E9443054AE01E
:1001400050E0BE018EE791E0DF91CF910C9405065F
:1001500061E085E00E949C0261E086E00E949C02D2
:1001600026E040E855E260E070E08EE791E00C9414
:10017000EE03CF93DF93EB01811105C0CB01DF913B
:10018000CF910C94870060E070E085E00E9414023B
:1001900068EC70E080E090E00E94B101BE0186E072
:1001A0000E9414026EE171E08EE791E00E94430527
:1001B0004AE050E0BE018EE791E0DF91CF910C94D0
:1001C0000506CF938EE791E00E940B03892B09F57A
:1001D0001092690110926801C0916B01C093630194
:1001E00080916D0180935E0180916E0180935F012B
:1001F00080916F01809360018EE591E00E94360648
:1002000090935D0180935C01C53649F50E9487009B
:1002100026C08EE791E00E94240380936A01E0915A
:100220006801F0916901E559FE4F8083682F8EE7E0
:1002300091E00E94500580916801909169010196BA
:10024000909369018093680161E070E080E090E044
:100250000E94B10180916A018A30D9F6B9CF8091AC
:100260006B01843639F460915C0170915D0181E02D
:100270000E94B90064E670E080E090E00E94B10165
:1002800010926B01CF9108951F920F920FB60F92AB
:1002900011242F933F938F939F93AF93BF9380919C
:1002A000760190917701A0917801B0917901309118
:1002B000750123E0230F2D3720F40196A11DB11DF8
:1002C00005C026E8230F0296A11DB11D20937501DC
:1002D0008093760190937701A0937801B093790190
:1002E00080917A0190917B01A0917C01B0917D0178
:1002F0000196A11DB11D80937A0190937B01A0937B
:100300007C01B0937D01BF91AF919F918F913F91FF
:100310002F910F900FBE0F901F9018953FB7F89434
:1003200080917A0190917B01A0917C01B0917D0137
:1003300026B5A89B05C02F3F19F00196A11DB11D40
:100340003FBF6627782F892F9A2F620F711D811D5D
:10035000911D42E0660F771F881F991F4A95D1F7BC
:100360000895CF92DF92EF92FF92CF93DF936B01CC
:100370007C010E948E01EB01C114D104E104F1045F
:1003800089F00E940D060E948E016C1B7D0B683E59
:10039000734090F381E0C81AD108E108F108C85110
:1003A000DC4FEACFDF91CF91FF90EF90DF90CF90BD
:1003B0000895789484B5826084BD84B5816084BDDD
:1003C00085B5826085BD85B5816085BDEEE6F0E0CE
:1003D000808181608083E1E8F0E01082808182602A
:1003E0008083808181608083E0E8F0E080818160AB
:1003F0008083E1EBF0E0808184608083E0EBF0E0DB
:10040000808181608083EAE7F0E08081846080837E
:100410008081826080838081816080838081806828
:1004200080831092C10008951F93CF93DF93182FFC
:10043000EB0161E00E949C02209711F460E004C08F
:10044000CF3FD10539F461E0812FDF91CF911F912A
:100450000C94D502E12FF0E0E859FF4FE491E3302E
:10046000F9F048F4E130B9F0E230A1F584B58062EA
:1004700084BDC8BD34C0E730E9F0E83019F1E4309C
:1004800049F580918000806280938000D0938B003A
:10049000C0938A0024C084B5806884BDC7BD1FC0D6
:1004A00080918000806880938000D0938900C09301
:1004B000880015C08091B00080688093B000C09320
:1004C000B3000DC08091B00080628093B000C093F3
:1004D000B40005C0C038D1050CF0B5CFAFCFDF9167
:1004E000CF911F910895833081F028F4813099F0E5
:1004F0008230A1F008958730A9F08830B9F08430B7
:10050000D1F4809180008F7D03C0809180008F772F
:1005100080938000089584B58F7702C084B58F7D65
:1005200084BD08958091B0008F7703C08091B000A2
:100530008F7D8093B0000895CF93DF9390E0FC010E
:10054000E458FF4F2491FC01E057FF4F849188232A
:1005500049F190E0880F991FFC01E255FF4FA591EA
:10056000B4918C559F4FFC01C591D4919FB76111F7
:1005700008C0F8948C91209582238C9388818223E3
:100580000AC0623051F4F8948C91322F3095832355
:100590008C938881822B888304C0F8948C91822B61
:1005A0008C939FBFDF91CF9108950F931F93CF93AB
:1005B000DF931F92CDB7DEB7282F30E0F901E8595D
:1005C000FF4F8491F901E458FF4F1491F901E0576E
:1005D000FF4F04910023C9F0882321F069830E9412
:1005E00073026981E02FF0E0EE0FFF1FEC55FF4F23
:1005F000A591B4919FB7F8948C91611103C01095A7
:10060000812301C0812B8C939FBF0F90DF91CF91ED
:100610001F910F910895FC01818D228D90E0805CE7
:100620009F4F821B91098F7399270895FC01918D2B
:10063000828D981731F0828DE80FF11D858D90E045
:1006400008958FEF9FEF0895FC01918D828D98178B
:1006500061F0828DDF01A80FB11D5D968C91928DA6
:100660009F5F9F73928F90E008958FEF9FEF0895A3
:1006700088EA94E0892B49F080E090E0892B29F00A
:100680000E94A80481110C9400000895FC01848D3F
:10069000DF01A80FB11DA35ABF4F2C91848D90E0AC
:1006A00001968F739927848FA689B7892C93A08987
:1006B000B1898C9180648C93938D848D981306C03E
:1006C0000288F389E02D80818F7D80830895CF9308
:1006D000DF93EC01888D8823C9F0EA89FB8980814A
:1006E00085FD05C0A889B9898C9186FD0FC00FB61C
:1006F00007FCF5CF808185FFF2CFA889B9898C915D
:1007000085FFEDCFCE010E944603E7CFDF91CF9169
:100710000895CF92DF92FF920F931F93CF93DF93B1
:100720001F92CDB7DEB76C0181E0D60158968C934D
:1007300058975B969C915B975C968C915C9798130D
:1007400007C05096ED91FC915197808185FD2EC098
:10075000F601038D10E00F5F1F4F0F731127F02E6E
:10076000F601848DF81211C00FB607FCF9CFD6013F
:100770005096ED91FC915197808185FFF1CFC60194
:1007800069830E9446036981EBCF838DE80FF11DD9
:10079000E35AFF4F6083D6015B960C935B975296AA
:1007A000ED91FC915397808180620CC0D6015696E2
:1007B000ED91FC91579760835096ED91FC91519784
:1007C00080818064808381E090E00F90DF91CF9101
:1007D0001F910F91FF90DF90CF900895BF92CF921D
:1007E000DF92EF92FF92CF93DF93EC016A017B01DE
:1007F000B22EE889F98982E08083411581EE58079D
:1008000061057105A1F060E079E08DE390E0A7015A
:1008100096010E940E062150310941095109569551
:10082000479537952795211580E1380798F0E88995
:10083000F989108260E874E88EE190E0A7019601E2
:100840000E940E06215031094109510956954795DC
:1008500037952795EC85FD853083EE85FF852083D0
:10086000188EEC89FD89B082EA89FB8980818061DC
:100870008083EA89FB89808188608083EA89FB899B
:10088000808180688083EA89FB8980818F7D808375
:10089000DF91CF91FF90EF90DF90CF90BF900895C0
:1008A0001F920F920FB60F9211242F938F939F9345
:1008B000EF93FF93E0918E01F0918F018081E091A1
:1008C0009401F091950182FD12C090818091970171
:1008D0008F5F8F7320919801821751F0E0919701FB
:1008E000F0E0E258FE4F958F8093970101C0808120
:1008F000FF91EF919F918F912F910F900FBE0F90CD
:100900001F9018951F920F920FB60F9211242F93DC
:100910003F934F935F936F937F938F939F93AF9387
:10092000BF93EF93FF938EE791E00E944603FF9100
:10093000EF91BF91AF919F918F917F916F915F9157
:100940004F913F912F910F900FBE0F901F901895D0
:100950008EE791E00E940B0321E0892B09F420E04F
:10096000822F0895109281011092800188EE93E009
:10097000A0E0B0E08093820190938301A093840172
:10098000B09385018FE391E090937F0180937E0186
:1009900085EC90E090938B0180938A0184EC90E049
:1009A00090938D0180938C0180EC90E090938F0167
:1009B00080938E0181EC90E090939101809390015F
:1009C00082EC90E0909393018093920186EC90E00A
:1009D0009093950180939401109297011092980141
:1009E0001092990110929A01089508950E94D901D8
:1009F0000E94F5040E94A800C8E3D3E00E94E10031
:100A00002097E1F30E943803F9CFCF92DF92EF9263
:100A1000FF920F931F93CF93DF936C017A01EB0149
:100A2000E60EF71E00E010E0CE15DF0561F06991DB
:100A3000D601ED91FC910190F081E02DC601099560
:100A4000080F191FF1CFC801DF91CF911F910F91AE
:100A5000FF90EF90DF90CF9008956115710581F0C0
:100A6000DB010D900020E9F7AD0141505109461B13
:100A7000570BDC01ED91FC910280F381E02D09948C
:100A800080E090E008950C942D05DC01ED91FC913F
:100A90000190F081E02D09946BE471E00C942D0538
:100AA0000F931F93CF93DF93EC010E9445058C01B8
:100AB000CE010E944C05800F911FDF91CF911F91B5
:100AC0000F9108958F929F92AF92BF92CF92DF9233
:100AD000EF92FF920F931F93CF93DF93CDB7DEB7C3
:100AE000A1970FB6F894DEBF0FBECDBF7C01C42E18
:100AF000E52FCB01D22E19A221E02D1510F02AE00E
:100B0000D22E8E010F5D1F4F8D2C912CA12CB12C5C
:100B10006C2D7E2FA50194010E940E068C2DD29E75
:100B200080191124015011098A3014F4805D01C02C
:100B3000895CF8018083211531054105510521F0BB
:100B4000C22EE32FCA01E4CFB801C7010E942D05D0
:100B5000A1960FB6F894DEBF0FBECDBFDF91CF9147
:100B60001F910F91FF90EF90DF90CF90BF90AF90CB
:100B70009F908F900895CF92DF92EF92FF920F9304
:100B80001F93CF93DF93EC016A017B01211531059F
:100B900079F4E881F9810190F081E02D642FDF91F3
:100BA000CF911F910F91FF90EF90DF90CF9009941C
:100BB0002A303105E9F477FF1AC06DE20E9445053D
:100BC0008C0144275527BA014C195D096E097F092C
:100BD0002AE0CE010E946205800F911FDF91CF9124
:100BE0001F910F91FF90EF90DF90CF9008952AE032
:100BF000B701A601CE01DF91CF911F910F91FF9018
:100C0000EF90DF90CF900C9462059A01AB016627BC
:100C100057FD6095762F0C94BB050895A1E21A2E1E
:100C2000AA1BBB1BFD010DC0AA1FBB1FEE1FFF1F90
:100C3000A217B307E407F50720F0A21BB30BE40BE0
:100C4000F50B661F771F881F991F1A9469F7609527
:100C50007095809590959B01AC01BD01CF010895E1
:100C6000EE0FFF1F0590F491E02D0994FC018827F9
:100C70009927E89421912032E9F3293010F02E30A1
:100C8000C8F32B3241F02D3239F4689404C00E942D
:100C90005406820F911D219120532A30C0F31EF477
:100CA000909581959F4F08957AE0979F902D879F0B
:0C0CB000802D910D11240895F894FFCFC1
:100CBC00204D6F746F7220676972616E646F207063
:100CCC006172612065737175657264612000204DDD
:100CDC006F746F7220676972616E646F20706172DD
:100CEC0061206469726569746120000000000089EC
:100CFC000305050B032403160367030D0A006E613D
:0C0D0C006E00696E66006F7666002E00B7
:00000001FF
